S012000071756164636F707465722E73726563DA
S11300000C94E6000C9403010C9403010C9403017A
S11300100C9403010C9403010C9403010C9403014C
S11300200C9403010C9403010C9403010C9403013C
S11300300C9403010C9403010C9403010C9403012C
S11300400C94AC0A0C9403010C94B20C0C94DD0CCB
S11300500C9403010C9403010C9403010C9403010C
S11300600C9403010C940301036EDB363D9A9999B9
S1130070993DABAAAA2A3E000000803F084AD73B1C
S11300803BCE016E84BCBFFDC12F3D6C74319ABD63
S113009056833DDA3D00C77F11BED9E4BB4C3E9187
S11300A06BAAAABE000000803F072C7AA5BA6CC5D3
S11300B090DA3B9365FC8BBC53F810FD3C5692835D
S11300C04DBD879D3AB63DCBC9BF5BBE73DA0FC940
S11300D03F0000407A10F35A00A0724E1809001035
S11300E0A5D4E80000E87648170000E40B540200A9
S11300F000CA9A3B000000E1F505000080969800D4
S1130100000040420F000000A086010000001027FC
S113011000000000E803000000006400000000008C
S11301200A00000000000100000000002C76D888BE
S1130130DC674F0823DFC1DFAE59E1B1B796E5E3D1
S1130140E453C63AE651997696E8E6C28426EB89EA
S11301508C9B62ED407C6FFCEFBC9C9F40F2BAA587
S11301606FA5F490055A2AF75C936B6CF9676DC11F
S11301701BFCE0E40D47FEF520E6B500D0ED902E23
S11301800300943577050080841E080000204E0A81
S1130190000000C80C333333330F986E12831141BF
S11301A0EF8D2114893BE65516CFFEE6DB18D1848A
S11301B04B381BF77C1D901DA4BBE42420328472B1
S11301C05E228100C9F124ECA1E53D2711241FBE64
S11301D0CFEFD4E0DEBFCDBF11E0A0E0B1E0EEEFA1
S11301E0F5E202C005900D92A031B107D9F721E0E4
S11301F0A0E1B1E001C01D92AA3EB207E1F70E945E
S1130200AF030C94FD120C9400001092B90088E422
S11302108093B800089594EA9093BC004FEF50E0A7
S113022060E070E0ECEBF0E09081992334F0415011
S1130230510961097109C0F704C0452B462B472BAE
S113024041F19091B900987F983011F0903119F5EF
S11302508093BB0084E88093BC008FEF90E0A0E023
S1130260B0E0ECEBF0E0208122232CF00197A1090F
S1130270B109C8F704C0892B8A2B8B2B71F090919C
S1130280B900987F983159F081E0903449F480E0C6
S1130290089581E0089581E0089581E0089580E063
S11302A0089584E98093BC0080E090E0ECEBF0E0FA
S11302B0208124FF05C00196811521E09207C1F732
S11302C008958093BB0084E88093BC008FEF90E096
S11302D0A0E0B0E0ECEBF0E0208122232CF00197C9
S11302E0A109B109C8F704C0892B8A2B8B2B41F0D3
S11302F09091B900987F81E0983219F480E00895D4
S113030081E0089584EC8093BC008FEF90E0A0E03E
S1130310B0E0ECEBF0E0208122232CF00197A1095E
S1130320B109C8F704C0892B8A2B8B2B19F0809153
S1130330BB00089580E0089584E88093BC008FEFAB
S113034090E0A0E0B0E0ECEBF0E0208122232CF080
S11303500197A109B109C8F704C0892B8A2B8B2BFB
S113036019F08091BB00089580E00895FC0110828B
S1130370118212821382FB01108211821282138273
S1130380FA01108211821282138208950F931F932F
S113039084E091E00E94350D609124017091250163
S11303A0809126019091270109E911E025E043E0BD
S11303B00E948610C8010E94350D80E20E94200D23
S11303C0609120017091210180912201909123017B
S11303D025E043E00E948610C8010E94350D80E2AA
S11303E00E94200D60911C0170911D0180911E01DD
S11303F090911F0125E043E00E948610C8010E94ED
S1130400350D80E20E94200D609118017091190150
S113041080911A0190911B0125E043E00E9486100F
S1130420C8010E94350D80E20E94200D60911401E4
S113043070911501809116019091170125E043E018
S11304400E948610C8010E94350D80E20E94200D92
S1130450609110017091110180911201909113012A
S113046025E043E00E948610C8010E94350D80E219
S11304700E94200D8DE091E00E94350D1F910F9197
S113048008954F925F926F927F928F929F92AF9254
S1130490BF92CF92DF92EF92FF920F93CF93DF93AD
S11304A000D000D0CDB7DEB74CE151E060E271E09E
S11304B084E291E00E94D00A8FE39CE90197F1F76E
S11304C000C0000048EB51E062EB71E085E991E087
S11304D00E94B6012091240130912501409126010A
S11304E05091270160919501709196018091970137
S11304F0909198010F2EF1E9EF2EF1E0FF2EF02DEF
S113050000E00E948A0C2091200130912101409149
S11305102201509123016091B2017091B301809145
S1130520B4019091B5010F2EF7EAEF2EF1E0FF2E02
S1130530F02D0E948A0C20911C0130911D014091E4
S11305401E0150911F016091B8017091B901809111
S1130550BA019091BB010F2EF5E8EF2EF1E0FF2ECA
S1130560F02D0E948A0C20E030E044E353E46091D3
S113057018017091190180911A0190911B010E9438
S1130580260E23EC35EF48E450E40E94C90F9B018A
S1130590AC016091910170919201809193019091CD
S11305A094010F2EFDE8EF2EF1E0FF2EF02D01E077
S11305B00E948A0C20E030E044E353E4609114018B
S11305C07091150180911601909117010E94260ED9
S11305D023EC35EF48E450E40E94C90F9B01AC01C1
S11305E06091A7017091A8018091A9019091AA013D
S11305F00F2EFBEAEF2EF1E0FF2EF02D0E948A0C65
S113060020E030E044E353E4609110017091110163
S113061080911201909113010E94260E23EC35EF74
S113062048E450E40E94C90F9B01AC01609185012C
S11306307091860180918701909188010F2EF3EAD1
S1130640EF2EF1E0FF2EF02D0E948A0C8AE08093B9
S1130650AF0180908D0190908E01A0908F01B09099
S11306609001A501940160E070E080E291E40E94B1
S1130670440D69837A838B839C83C090AB01D090B3
S1130680AC01E090AD01F090AE014090A301509018
S1130690A4016090A5017090A601A70196010E9493
S11306A0450DA30192010E94450D0E948E0E709388
S11306B0B7016093B60120E030E040E251E4C501A7
S11306C0B4010E94450D4B015C019B01AC01C701C3
S11306D0B6010E94450DA30192010E94440D0E949F
S11306E08E0E70938A0160938901A7019601698136
S11306F07A818B819C810E94440DA30192010E9406
S1130700440D0E948E0E7093B1016093B001A70155
S11307109601C501B4010E94440D9B01AC01C301C3
S1130720B2010E94450D0E948E0E70938C0160935D
S11307308B010E94C6010F900F900F900F90DF91D4
S1130740CF910F91FF90EF90DF90CF90BF90AF903B
S11307509F908F907F906F905F904F90089583E368
S113076090E00E94070D78940E94DE042FEF80E74A
S113077092E0215080409040E1F700C000000E94C8
S11307804102FDCFDF92EF92FF920F931F93CF931D
S1130790DF93182FD62ED42FC52F662351F180ED69
S11307A00E940B01812F0E94610185E38A95F1F774
S11307B0000081ED0E940B010D2F1C2FC0E0D0E042
S11307C0ED2CF12CE1E0EE1AF108CE15DF0529F449
S11307D00E949C01F801808304C00E948201F801F8
S11307E0808321960F5F1F4FCD1578F30E9451012E
S11307F001C0D12C8D2DDF91CF911F910F91FF90CE
S1130800EF90DF900895AB0161E00E94C203089568
S1130810FF920F931F93CF93DF93C82F062FF42ECD
S1130820152F662389F080ED0E940B018C2F0E9406
S11308306101CF2DD12F10E089910E9461011F5FCA
S11308401013FACF0E945101DF91CF911F910F91A4
S1130850FF900895CF93DF931F92CDB7DEB76983DE
S1130860AE014F5F5F4F61E00E9408040F90DF917B
S1130870CF910895FF920F931F93CF93DF931F920D
S1130880CDB7DEB7F62E8A01BE016F5F7F4F0E949F
S1130890030421E030E0B90102C0660F771FFA9427
S11308A0E2F799816923F80160830F90DF91CF917A
S11308B01F910F91FF900895EF92FF920F931F9352
S11308C0CF93DF931F92CDB7DEB7182FE62EF42E09
S11308D0022F442391F11982BE016F5F7F4F0E9462
S11308E00304882351F16E2D70E06F1971096F5F55
S11308F07F4FE1E0F0E0AF0102C0440F551FFA94CE
S1130900E2F741505109062E02C0440F551F0A94C4
S1130910E2F7202F30E0C90102C0880F991F6A95C1
S1130920E2F7BC01942F9095898189234623682F8F
S1130930642B6983812F0E942A040F90DF91CF9149
S11309401F910F91FF90EF900895FF920F931F93C3
S1130950CF93DF931F92CDB7DEB7182F062FF42E57
S1130960BE016F5F7F4F0E940304FF2059F021E016
S113097030E0B90102C0660F771F0A95E2F789815A
S1130980682B0BC021E030E0B90102C0660F771F6D
S11309900A95E2F76095898168236983812F0E9413
S11309A02A040F90DF91CF911F910F91FF9008952A
S11309B040E066E08BE60E94A50408950E940501CC
S11309C025E32A95F1F700008FEF91EE24E08150A2
S11309D090402040E1F700C000000E94D8048FE35B
S11309E09CE90197F1F700C0000021E043E062E0D8
S11309F08BE60E945C0423E043E062E08AE10E940B
S1130A005C0464E089E10E942A0423E042E064E09B
S1130A108BE10E945C0420E042E064E08CE10E94EF
S1130A205C0485B5856085BDEEE6F0E0808181607B
S1130A30808308954F925F926F927F928F929F92DC
S1130A40AF92BF92CF92DF92EF92FF920F931F93D8
S1130A50CF93DF93CDB7DEB7A4970FB6F894DEBF7C
S1130A600FBECDBF69877A878B879C872D873E878A
S1130A704F87588BE98AFA8A0B8B1C8B20E030E075
S1130A80A901C601B5010E94220E811117C020E000
S1130A9030E0A9016FA978AD89AD9AAD0E94220E0C
S1130AA081110CC020E030E0A9016BAD7CAD8DADAF
S1130AB09EAD0E94220E882309F404C2A60195016A
S1130AC0C601B5010E94C90F2B013C012FA938AD05
S1130AD049AD5AADCA01B9010E94C90F9B01AC01CD
S1130AE0C301B2010E94450D2B013C012BAD3CAD6D
S1130AF04DAD5EADCA01B9010E94C90F9B01AC01A5
S1130B00C301B2010E94450D0E9430102B013C012B
S1130B109B01AC01C601B5010E94260E6D8B7E8B34
S1130B208F8B988FA30192016FA978AD89AD9AAD8F
S1130B300E94260E69837A838B839C83A30192018E
S1130B406BAD7CAD8DAD9EAD0E94260E6D837E8314
S1130B508F83988760913C0170913D0180913E01A3
S1130B6090913F012091340130913501409136013B
S1130B70509137018090000190900101A0900201F2
S1130B80B0900301409038015090390160903A01CF
S1130B9070903B010E94C90F6B017C01A30192017B
S1130BA0C501B4010E94C90F9B01AC01C701B60184
S1130BB00E94440D698F7A8F8B8F9C8F6091000106
S1130BC070910101809102019091030120913C01F7
S1130BD030913D0140913E0150913F018090380198
S1130BE090903901A0903A01B0903B0140903401BB
S1130BF05090350160903601709037010E94C90F02
S1130C006B017C01A3019201C501B4010E94C90FCB
S1130C109B01AC01C701B6010E94450D6D8F7E8F0B
S1130C208F8F98A36091000170910101809102015E
S1130C309091030120910001309101014091020142
S1130C40509103018090340190903501A0903601B9
S1130C50B0903701409034015090350160903601D6
S1130C60709037010E94C90F20E030E040E05FE35C
S1130C700E94440D6B017C01A3019201C501B401E2
S1130C800E94C90F9B01AC01C701B6010E94450D2A
S1130C906B017C019B01AC0169817A818B819C8110
S1130CA00E94C90F4B015C012D8D3E8D4F8D58A1C3
S1130CB06D817E818F8198850E94C90F9B01AC0153
S1130CC0C501B4010E94440D69A37AA38BA39CA31C
S1130CD0298D3A8D4B8D5C8D6D817E818F819885B8
S1130CE00E94C90F4B015C01A70196016D897E89A1
S1130CF08F89988D0E94C90F9B01AC01C501B40175
S1130D000E94440D2B013C012D8D3E8D4F8D58A129
S1130D106D897E898F89988D0E94C90F6B017C0132
S1130D20298D3A8D4B8D5C8D69817A818B819C8173
S1130D300E94C90F9B01AC01C701B6010E94440D7A
S1130D404B015C01C0903001D0903101E090320140
S1130D50F09033012DEC3CEC4CE45EE369A17AA104
S1130D608BA19CA10E94C90F2AE83BE446E85CE3FE
S1130D700E94C90FA70196010E94450D609330019E
S1130D80709331018093320190933301C0902C0110
S1130D90D0902D01E0902E01F0902F012DEC3CEC31
S1130DA04CE45EE3C301B2010E94C90F2AE83BE4AC
S1130DB046E85CE30E94C90FA70196010E94450D15
S1130DC060932C0170932D0180932E0190932F0139
S1130DD0C0902801D0902901E0902A01F0902B01C5
S1130DE02DEC3CEC4CE45EE3C501B4010E94C90F58
S1130DF02AE83BE446E85CE30E94C90FA701960198
S1130E000E94450D609328017093290180932A0163
S1130E1090932B01209130013091310140913201A6
S1130E205091330169857A858B859C850E94450D97
S1130E3069837A838B839C8320912C0130912D01CB
S1130E4040912E0150912F016D857E858F85988963
S1130E500E94450D6D837E838F839887209128019E
S1130E603091290140912A0150912B0169897A8995
S1130E708B899C890E94450D6B017C0129A13AA1B3
S1130E804BA15CA169817A818B819C810E94450D73
S1130E9069877A878B879C87A30192016D817E8104
S1130EA08F8198850E94450D6D877E878F87988BEB
S1130EB0A5019401C701B6010E94450D698B7A8B87
S1130EC08B8B9C8B2AE83BE446E05CE369857A855E
S1130ED08B859C850E94C90F69837A838B839C834D
S1130EE02AE83BE446E05CE36D857E858F8598893E
S1130EF00E94C90F6D837E838F8398872AE83BE421
S1130F0046E05CE369897A898B899C890E94C90FD0
S1130F1069877A878B879C87E0900001F0900101B4
S1130F200091020110910301ED86FE860F87188B54
S1130F30E0903C01F0903D0100913E0110913F0191
S1130F40E98AFA8A0B8B1C8BE0903801F090390106
S1130F5000913A0110913B01ED8AFE8A0F8B188FA4
S1130F604090340150903501609036017090370103
S1130F70C0900001D0900101E0900201F0900301C3
S1130F8069897A898B899C89905829813A814B8116
S1130F905C810E94C90F4B015C012D813E814F8110
S1130FA058856D897E898F89988D0E94C90F9B0110
S1130FB0AC01C501B4010E94440D4B015C012985BB
S1130FC03A854B855C85C301B2010E94C90F9B0120
S1130FD0AC01C501B4010E94440DA70196010E9411
S1130FE0450D609300017093010180930201909379
S1130FF003014090340150903501609036017090A7
S11310003701C0903C01D0903D01E0903E01F0904A
S11310103F0129813A814B815C816D857E858F8575
S113102098890E94C90F4B015C0129853A854B853B
S11310305C856D897E898F89988D0E94C90F9B017B
S1131040AC01C501B4010E94450D4B015C012D8129
S11310503E814F815885C301B2010E94C90F9B0193
S1131060AC01C501B4010E94440DA70196010E9480
S1131070450D60933C0170933D0180933E01909334
S11310803F014090340150903501609036017090DA
S11310903701C0903801D0903901E0903A01F090C6
S11310A03B012D813E814F8158856D857E858F85DD
S11310B098890E94C90F4B015C0129853A854B85AB
S11310C05C8569897A898B899C890E94C90F9B01F7
S11310D0AC01C501B4010E94440D4B015C0129819E
S11310E03A814B815C81C301B2010E94C90F9B010B
S11310F0AC01C501B4010E94450DA70196010E94EF
S1131100450D609338017093390180933A019093AF
S11311103B01C0903401D0903501E0903601F0904D
S1131120370129853A854B855C856D857E858F855C
S113113098890E94C90F4B015C012D813E814F812A
S1131140588569897A898B899C890E94C90F9B017A
S1131150AC01C501B4010E94450D4B015C0129811C
S11311603A814B815C816D897E898F89988D0E943B
S1131170C90F9B01AC01C501B4010E94440DA70134
S113118096010E94450D609334017093350180935C
S113119036019093370160910001709101018091B3
S11311A002019091030120910001309101014091CD
S11311B002015091030180903C0190903D01A09068
S11311C03E01B0903F0140903C0150903D01609041
S11311D03E0170903F01E0903801F0903901009198
S11311E03A0110913B01E982FA820B831C83E0905F
S11311F03801F090390100913A0110913B01ED82E0
S1131200FE820F831887E0903401F090350100913D
S1131210360110913701E986FA860B871C87E09026
S11312203401F09035010091360110913701ED86BB
S1131230FE860F87188B0E94C90F6B017C01A301E6
S11312409201C501B4010E94C90F9B01AC01C70101
S1131250B6010E94450D6B017C012D813E814F81B9
S1131260588569817A818B819C810E94C90F9B0179
S1131270AC01C701B6010E94450D6B017C012D85AF
S11312803E854F85588969857A858B859C850E9422
S1131290C90F9B01AC01C701B6010E94450D0E9414
S11312A030106B017C01609100017091010180910B
S11312B0020190910301A70196010E94260E6093FA
S11312C000017093010180930201909303016091E6
S11312D03C0170913D0180913E0190913F01A70135
S11312E096010E94260E60933C0170933D01809309
S11312F03E0190933F0160913801709139018091D2
S11313003A0190913B01A70196010E94260E609339
S113131038017093390180933A0190933B016091B5
S11313203401709135018091360190913701A70104
S113133096010E94260E60933401709335018093C8
S1131340360190933701A4960FB6F894DEBF0FBE12
S1131350CDBFDF91CF911F910F91FF90EF90DF9060
S1131360CF90BF90AF909F908F907F906F905F9041
S11313704F9008954F925F926F927F928F929F92B7
S1131380AF92BF92CF92DF92EF92FF920F931F938F
S1131390CF93DF93CDB7DEB728970FB6F894DEBFAF
S11313A00FBECDBF4CEB51E060E08AE30E943A04EB
S11313B08091BC01811105C085E38A95F1F7000095
S11313C0F1CF4CEB51E06EE08BE30E94C2038091BD
S11313D0BC016091BD010091BE019090BF0180905D
S11313E0C0011091C1017090C4016090C50150907A
S11313F0C6014090C701F090C801E090C90170E0B7
S1131400782B882777FD8095982F0E94C10E20E0C5
S113141030E040E858E30E94C90F5B016C016E2D77
S113142070E07F29635E7F4F882777FD8095982F32
S11314300E94C10E23E333E343E851E40E94260EE5
S113144024E33AEF4EE85CE30E94C90F69837A8390
S11314508B839C83642D70E07529695071098827FA
S113146077FD8095982F0E94C10E23E333E343E870
S113147051E40E94260E24E33AEF4EE85CE30E9416
S1131480C90F6D837E838F839887662D70E07729DB
S1131490665F7F4F882777FD8095982F0E94C10E45
S11314A023E333E343E851E40E94260E24E33AEFB6
S11314B04EE85CE30E94C90F2B013C01612F70E0F0
S11314C07829882777FD8095982F0E94C10E20E007
S11314D030E040E858E30E94C90F9F938F937F93B5
S11314E06F93692D70E0702B882777FD8095982F76
S11314F00E94C10E20E030E040E858E30E94C90F8A
S11315009F938F937F936F93E980FA800B811C8163
S11315102D813E814F815885C301B2010E941A0575
S11315200FB6F894DEBF0FBECDBF28960FB6F89461
S1131530DEBF0FBECDBFDF91CF911F910F91FF9002
S1131540EF90DF90CF90BF90AF909F908F907F905F
S11315506F905F904F9008951F920F920FB60F9265
S113156011242F933F934F935F936F937F938F93A4
S11315709F93AF93BF93EF93FF930E94BA09FF9198
S1131580EF91BF91AF919F918F917F916F915F91F7
S11315904F913F912F910F900FBE0F901F90189570
S11315A02F923F924F925F926F927F928F929F926F
S11315B0AF92BF92CF92DF92EF92FF920F931F935D
S11315C0CF93DF93CDB7DEB762970FB6F894DEBF43
S11315D00FBECDBF1C018B015A8B498B609100015A
S11315E070910101809102019091030180900001AA
S11315F090900101A0900201B0900301C0903C01C1
S1131600D0903D01E0903E01F0903F0120913C01DB
S113161030913D0140913E0150913F012D833E8325
S11316204F83588720913C0130913D0140913E0108
S113163050913F0129833A834B835C832091380185
S11316403091390140913A0150913B0129873A8701
S11316504B875C874090000150900101609002012B
S1131660709003012091340130913501409136018D
S1131670509137012D873E874F87588B9B01AC01D2
S11316800E94450DA50194010E94C90F4B015C0104
S1131690A7019601C701B6010E94450D2D813E8127
S11316A04F8158850E94C90F9B01AC01C501B4014B
S11316B00E94450D20E030E040E85FE30E94440DC5
S11316C06B017C0129813A814B815C81CA01B9019A
S11316D00E94450D29853A854B855C850E94C90F7A
S11316E04B015C01A3019201C301B2010E94450DAB
S11316F02D853E854F8558890E94C90F9B01AC01F9
S1131700C501B4010E94440DA70196010E94CF0DAA
S1131710E989FA89608371838283938360913C01B0
S113172070913D0180913E0190913F018090340180
S113173090903501A0903601B0903701C09000011F
S1131740D0900101E0900201F09003014090380133
S11317505090390160903A0170903B019B01AC01BB
S11317600E94450DA50194010E94C90F4B015C0123
S1131770A7019601C701B6010E94450DA30192017C
S11317800E94C90F9B01AC01C501B4010E94450D23
S11317900E94A90DDC01CB01B058F801808391832C
S11317A0A283B383609100017091010180910201D1
S11317B0909103014090000150900101609002015A
S11317C0709003018090340190903501A09036010F
S11317D0B0903701209134013091350140913601A8
S11317E0509137012D833E834F835887C090380131
S11317F0D0903901E0903A01F0903B0120913401FE
S113180030913501409136015091370129873A874B
S11318104B875C87209100013091010140910201C6
S11318205091030129833A834B835C8320913C01CB
S113183030913D0140913E0150913F012D873E87FB
S11318404F87588B9B01AC010E94450DA301920167
S11318500E94C90F2B013C01A5019401C501B401EB
S11318600E94450D2D813E814F8158850E94C90FEC
S11318709B01AC01C301B2010E94450D20E030E0A0
S113188040E85FE30E94440D4B015C01A70196010F
S1131890C701B6010E94450D29853A854B855C85B3
S11318A00E94C90F6B017C0129813A814B815C81C3
S11318B0CA01B9010E94450D2D853E854F85588981
S11318C00E94C90F9B01AC01C701B6010E94440DDF
S11318D0A50194010E94CF0DF1016083718382837D
S11318E0938362960FB6F894DEBF0FBECDBFDF912F
S11318F0CF911F910F91FF90EF90DF90CF90BF9009
S1131900AF909F908F907F906F905F904F903F909B
S11319102F900895EF92FF920F930E94440D6093CD
S1131920DE017093DF018093E0019093E1010111E6
S113193006C0F70160837183828393830FC00130F3
S113194031F4F701608371838283938307C002308B
S113195029F4F70160837183828393830F91FF904D
S1131960EF9008951F920F920FB60F9211242F93A8
S11319708F939F93EF93FF938091C0002091C600B3
S11319808871E0914201EF5FEF7190914101E91795
S113199039F0E0934201F0E0EB5BFE4F208301C09D
S11319A082E080934001FF91EF919F918F912F915D
S11319B00F900FBE0F901F9018951F920F920FB6A5
S11319C00F9211248F939F93EF93FF93909144016F
S11319D080914301981769F0E0914301EF5FEF7143
S11319E0E0934301F0E0EB59FE4F80818093C60001
S11319F005C0E1ECF0E080818F7D8083FF91EF9161
S1131A009F918F910F900FBE0F901F901895109279
S1131A104401109243011092420110924101992312
S1131A2024F422E02093C0009F779093C500809314
S1131A30C4008FE18093C10086E08093C2000895C2
S1131A40209144012F5F2F71909143012917E1F3F5
S1131A50E22FF0E0EB59FE4F808320934401E1EC48
S1131A60F0E08081806280830895CF93DF93EC015E
S1131A708881882331F021960E94200D899181115B
S1131A80FBCFDF91CF9108955058BB27AA270ED0E2
S1131A903FC230D230F035D220F031F49F3F11F400
S1131AA01EF4EFC10EF4E095E7FBE5C1E92F41D246
S1131AB080F3BA17620773078407950718F071F467
S1131AC09EF559C20EF4E0950B2EBA2FA02D0B01F2
S1131AD0B90190010C01CA01A0011124FF27591B6F
S1131AE099F0593F50F4503E68F11A16F040A22F75
S1131AF0232F342F4427585FF3CF469537952795E6
S1131B00A795F0405395C9F77EF41F16BA0B620BE4
S1131B10730B840BBAF09150A1F0FF0FBB1F661F2B
S1131B20771F881FC2F70EC0BA0F621F731F841F6E
S1131B3048F4879577956795B795F7959E3F08F094
S1131B40B3CF9395880F08F09927EE0F9795879553
S1131B5008959F939F77EEE389379E0720F4E8E684
S1131B60F0E0B7D109C048D19058A2EA2AED3FE08D
S1131B7049EC5FE39BDFCCD10F9007FC90580895AC
S1131B80B9D158F080E891E009F49EEFBAD128F079
S1131B9040E851E059F45EEF09C073C1ECC1E92F8C
S1131BA0E078C7D168F3092E052AC1F32617370751
S1131BB04807590738F00E2E07F8E02569F0E025AC
S1131BC0E0640AC0EF6307F8009407FADB01B90187
S1131BD09D01DC01CA01AD01EF9347D099D10AD030
S1131BE05F91552331F02BED3FE049E450FD49EC82
S1131BF04CCF0895DF93DD27B92FBF7740E85FE32B
S1131C001616170648075B0710F4D92FBBD19F930C
S1131C108F937F936F9362D2ECE7F0E035D178D164
S1131C202F913F914F915F91C0D1DD2349F090589E
S1131C30A2EA2AED3FE049EC5FE3D0785D2736DF86
S1131C40DF9166C1F4D008F481E008950CD060C13E
S1131C5058D140F04FD130F021F45F3F19F00BC15F
S1131C6051118AC10EC165D198F39923C9F3552343
S1131C70B1F3951B550BBB27AA276217730784077B
S1131C8038F09F5F5F4F220F331F441FAA1FA9F331
S1131C9033D00E2E3AF0E0E830D091505040E69523
S1131CA0001CCAF729D0FE2F27D0660F771F881F84
S1131CB0BB1F261737074807AB07B0E809F0BB0B73
S1131CC0802DBF01FF2793585F4F2AF09E3F510597
S1131CD068F0D1C051C15F3FECF3983EDCF38695C8
S1131CE077956795B795F7959F5FC9F7880F911D0D
S1131CF09695879597F90895E1E0660F771F881FF9
S1131D00BB1F621773078407BA0720F0621B730BAB
S1131D10840BBA0BEE1F88F7E095089504D06894FD
S1131D20B1112AC108950DD188F09F5790F0B92FB1
S1131D309927B751A0F0D1F0660F771F881F991F1C
S1131D401AF0BA95C9F712C0B13081F014D1B1E0DC
S1131D50089511C1672F782F8827B85F39F0B93FEC
S1131D60CCF3869577956795B395D9F73EF490951E
S1131D708095709561957F4F8F4F9F4F0895E8949C
S1131D8009C097FB3EF490958095709561957F4FBF
S1131D908F4F9F4F9923A9F0F92F96E9BB2793956D
S1131DA0F695879577956795B795F111F8CFFAF47D
S1131DB0BB0F11F460FF1BC06F5F7F4F8F4F9F4FAE
S1131DC016C0882311F096E911C0772321F09EE80C
S1131DD0872F762F05C0662371F096E8862F70E072
S1131DE060E02AF09A95660F771F881FDAF7880F4C
S1131DF09695879597F90895DF93CF931F930F9343
S1131E008B01EC01E9EAF0E03FD082D09801AE0109
S1131E108B01EC0160E070E080E89FE335DE20D1C7
S1131E209801AE010F911F91CF91DF91BEC0990F20
S1131E300008550FAA0BE0E8FEEF16161706E80790
S1131E40F907C0F012161306E407F50798F0621BB1
S1131E50730B840B950B39F40A2661F0232B242B86
S1131E60252B21F408950A2609F4A140A6958FEFA5
S1131E70811D811D089597F99F6780E870E060E0F7
S1131E8008959FEF80EC0895DF93CF931F930F93F2
S1131E90FF92EF92DF927B018C01689405C0DA2EE9
S1131EA0EF0183D0FE01E894A591259135914591E8
S1131EB05591AEF3EF01FADDFE019701A801DA9422
S1131EC079F7DF90EF90FF900F911F91CF91DF9101
S1131ED008959F938F937F936F93FF93EF939B0149
S1131EE0AC0157D0EF91FF91CFDF2F913F914F91EC
S1131EF05F914FC000240A941616170618060906A7
S1131F00089500240A94121613061406050608956B
S1131F10092E0394000C11F4882352F0BB0F40F4F3
S1131F20BF2B11F460FF04C06F5F7F4F8F4F9F4F33
S1131F30089557FD9058440F551F59F05F3F71F0B5
S1131F404795880F97FB991F61F09F3F79F087951C
S1131F500895121613061406551FF2CF4695F1DFA5
S1131F6008C0161617061806991FF1CF8695710535
S1131F70610508940895E894BB2766277727CB0169
S1131F8097F908959B01AC0160E070E080E89FE35D
S1131F905DCE0BD0BDCFAEDF28F0B3DF18F09523B4
S1131FA009F069CF6ECF1124E7CFC3DFA0F3959F6B
S1131FB0D1F3950F50E0551F629FF001729FBB272C
S1131FC0F00DB11D639FAA27F00DB11DAA1F649FD8
S1131FD06627B00DA11D661F829F2227B00DA11D8B
S1131FE0621F739FB00DA11D621F839FA00D611D11
S1131FF0221F749F3327A00D611D231F849F600D32
S1132000211D822F762F6A2F11249F5750408AF06A
S1132010E1F088234AF0EE0FFF1FBB1F661F771FF6
S1132020881F91505040A9F79E3F510570F023CF6F
S1132030A3CF5F3FECF3983EDCF3869577956795E5
S1132040B795F795E7959F5FC1F7FE2B880F911D14
S11320509695879597F9089511F40EF412CF41C01F
S113206070DFD0F39923D9F3CEF39F57550B87FF35
S113207046D00024A0E640EA9001805856959795F2
S113208028F4805C660F771F881F20F02617370717
S1132090480730F4621B730B840B202931294A2B27
S11320A0A69517940794202531254A2758F7660FDB
S11320B0771F881F20F026173707480730F4620B74
S11320C0730B840B200D311D411DA09581F7B901BF
S11320D0842F9158880F9695879508959B01AC019C
S11320E058CF9F3F31F0915020F4879577956795AD
S11320F0B795880F911D9695879597F908959150F6
S11321005040660F771F881FD2F70895EF920F9300
S11321101F93CF93DF93E80147FF02C034E101C06E
S113212034E0E42FFF27E7FDF095F7FF03C0F195B6
S1132130E195F109E32E022F2E2FAE010E94A71084
S1132140CE01DF91CF911F910F91EF9008956F927F
S11321507F929F92AF92BF92CF92DF92EF92FF92C3
S11321600F931F93CF93DF93CDB7DEB729970FB6A5
S1132170F894DEBF0FBECDBF6A01B22E102F0C3310
S113218020F4FF24F394F00E02C04CE3F42E0F2D40
S113219027E0AE014F5F5F4F0E9425127981272F00
S11321A02970213031F0E1FC06C0E0FC06C060E09B
S11321B005C06DE203C06BE201C060E2AE2DA07108
S11321C073FF36C0662311F084E001C083E08B15F1
S11321D010F4B81A01C0B12CA1110BC0F6018B2D5B
S11321E090E2882319F091938150FBCFCB0CD11C42
S11321F0B12C662331F0F601608396012F5F3F4FC7
S11322006901C6010396E2FE05C02EE4F6012083AF
S113221031E404C02EE6F601208331E631832283C3
S1132220FC012B2D30E22223F1F131932150FBCF1D
S113223072FF40C0662311F084E001C083E08B1577
S113224010F4B81A01C0B12CA1110BC0F6018B2DEA
S113225090E2882319F091938150FBCFCB0CD11CD1
S1132260B12C662331F0F601608396012F5F3F4F56
S11322706901C6010396E2FE07C029E4F601208342
S11322802EE4218326E406C029E6F60120832EE607
S1132290218326E62283FC012B2D30E2222319F030
S11322A031932150FBCFFC01EB0DF11D10828EEF19
S11322B09FEFB7C0B1E0611101C0B0E04B2F50E017
S11322C01816190624F49C012F5F3F4F02C021E029
S11322D030E0240F351F112329F0412F50E04F5FC8
S11322E05F4F02C040E050E0420F531F2B2D30E0FF
S11322F04217530714F4B41A01C0B12C2E2D2871BF
S113230059F4F6012B2D30E2222319F03193215098
S1132310FBCFCB0CD11CB12CBB2331F0F601608375
S113232096012F5F3F4F6901A1110BC0F6012B2DC0
S113233030E3222319F031932150FBCFCB0CD11C75
S1132340B12CF80E0A81372F3071A32E74FF03C00D
S1132350013309F4FA941F142CF42F2D293018F0AA
S113236028E001C021E0682F392F97FF02C060E008
S113237030E0462F532F612C712C3EE2932EBC018A
S1132380621B71099B01DC01A41BB50BE1E0F0E0C9
S1132390EC0FFD1FAE0FBF1FE12EF12CF194E19461
S11323A0F1084F3FFFEF5F0731F4F6019082B60169
S11323B06F5F7F4F6B01841795074CF02417350727
S11323C034F4BD01660D771DFB01118101C010E3DA
S11323D041505109FFEF6F1A7F0AB6016F5F7F4FBB
S11323E04E155F0524F0F60110836B01DACF481710
S11323F0590739F4063320F4053319F4A11001C048
S113240011E3F6011083FB018B2D90E2882319F070
S113241091938150FBCFFB01EB0DF11D108280E005
S113242090E029960FB6F894DEBF0FBECDBFDF91C2
S1132430CF911F910F91FF90EF90DF90CF90BF90BD
S1132440AF909F907F906F900895283008F027E018
S11324503327DA01990F311D87FD916000966105DC
S1132460710539F432602E5F3D9330E32A95E1F72C
S113247008959F3F30F080387105610509F03C5F95
S11324803C5F3D93913008F08068911DDF93CF93BA
S11324901F930F93FF92EF92192F987F9695E92F30
S11324A096959695E90FFF27E45DFE4F992733270C
S11324B0EE24FF24A701E70105900894079428F46B
S11324C0360FE71EF81E491F511D660F771F881F20
S11324D0991F0694A1F70590079428F4E70EF81EB7
S11324E0491F561FC11D770F881F991F661F069429
S11324F0A1F70590079428F4F80E491F561FC71F2B
S1132500D11D880F991F661F771F0694A1F70590A8
S1132510079420F4490F561FC71FD81F990F661F31
S1132520771F881F0694A9F784911095177041F0BE
S1132530D695C79557954795F794E7941A95C1F79B
S1132540E2EDF0E0689415901591359165919591BF
S113255005907FE27395E118F10A430B560BC90B02
S1132560D009C0F7E10CF11E431F561FC91FD01D2F
S11325707EF4703311F48A95E6CFE894015030F07C
S1132580080F0AF40027021708F4202F2395022FBE
S11325907A3328F079E37D932A95E9F710C07D9387
S11325A02A9589F606949795679537951795179404
S11325B0E118F10A430B560BC90BD00998F0239587
S11325C07E9173957A3308F070E37C932013B8F707
S11325D07E9170617D9330F0839571E37D9370E318
S11325E02A95E1F71124EF90FF900F911F91CF915D
S11125F0DF91992787FD90950895F894FFCF09
S11325FE0000803F73656E736F72730A000D0A00DC
S9030000FC
